{
  "_format": "hh-sol-artifact-1",
  "contractName": "Lottery",
  "sourceName": "contracts/Lottery.sol",
  "abi": [
    {
      "inputs": [],
      "stateMutability": "nonpayable",
      "type": "constructor"
    },
    {
      "anonymous": false,
      "inputs": [
        {
          "indexed": false,
          "internalType": "address",
          "name": "bidder",
          "type": "address"
        },
        {
          "indexed": false,
          "internalType": "uint256",
          "name": "tokenId",
          "type": "uint256"
        },
        {
          "indexed": false,
          "internalType": "uint256",
          "name": "defaultBid",
          "type": "uint256"
        }
      ],
      "name": "BidCorrect",
      "type": "event"
    },
    {
      "anonymous": false,
      "inputs": [
        {
          "indexed": true,
          "internalType": "address",
          "name": "previousOwner",
          "type": "address"
        },
        {
          "indexed": true,
          "internalType": "address",
          "name": "newOwner",
          "type": "address"
        }
      ],
      "name": "OwnershipTransferred",
      "type": "event"
    },
    {
      "inputs": [
        {
          "internalType": "uint256",
          "name": "_quantity",
          "type": "uint256"
        }
      ],
      "name": "buyTokens",
      "outputs": [],
      "stateMutability": "payable",
      "type": "function"
    },
    {
      "inputs": [],
      "name": "getContractBalance",
      "outputs": [
        {
          "internalType": "uint256",
          "name": "",
          "type": "uint256"
        }
      ],
      "stateMutability": "view",
      "type": "function"
    },
    {
      "inputs": [],
      "name": "getLotteryInfoContract",
      "outputs": [
        {
          "internalType": "address",
          "name": "",
          "type": "address"
        }
      ],
      "stateMutability": "view",
      "type": "function"
    },
    {
      "inputs": [],
      "name": "getLotteryTokenContract",
      "outputs": [
        {
          "internalType": "address",
          "name": "",
          "type": "address"
        }
      ],
      "stateMutability": "view",
      "type": "function"
    },
    {
      "inputs": [
        {
          "internalType": "address",
          "name": "_lotteryInfoContract",
          "type": "address"
        }
      ],
      "name": "initLotteryInfoContract",
      "outputs": [],
      "stateMutability": "nonpayable",
      "type": "function"
    },
    {
      "inputs": [
        {
          "internalType": "address",
          "name": "_lotteryTokenContract",
          "type": "address"
        }
      ],
      "name": "initLotteryTokenContract",
      "outputs": [],
      "stateMutability": "nonpayable",
      "type": "function"
    },
    {
      "inputs": [],
      "name": "owner",
      "outputs": [
        {
          "internalType": "address",
          "name": "",
          "type": "address"
        }
      ],
      "stateMutability": "view",
      "type": "function"
    },
    {
      "inputs": [
        {
          "internalType": "uint256",
          "name": "_tokenIds",
          "type": "uint256"
        }
      ],
      "name": "pickTheWinner",
      "outputs": [],
      "stateMutability": "nonpayable",
      "type": "function"
    },
    {
      "inputs": [
        {
          "internalType": "uint256",
          "name": "_tokenIds",
          "type": "uint256"
        }
      ],
      "name": "placeABid",
      "outputs": [],
      "stateMutability": "nonpayable",
      "type": "function"
    },
    {
      "inputs": [],
      "name": "renounceOwnership",
      "outputs": [],
      "stateMutability": "nonpayable",
      "type": "function"
    },
    {
      "inputs": [
        {
          "internalType": "string",
          "name": "_name",
          "type": "string"
        },
        {
          "internalType": "uint256",
          "name": "_defaultBid",
          "type": "uint256"
        },
        {
          "internalType": "uint256",
          "name": "_endingTimeLottery",
          "type": "uint256"
        }
      ],
      "name": "setItemToWin",
      "outputs": [],
      "stateMutability": "nonpayable",
      "type": "function"
    },
    {
      "inputs": [
        {
          "internalType": "address",
          "name": "newOwner",
          "type": "address"
        }
      ],
      "name": "transferOwnership",
      "outputs": [],
      "stateMutability": "nonpayable",
      "type": "function"
    }
  ],
  "bytecode": "0x60806040523480156200001157600080fd5b5062000032620000266200004960201b60201c565b6200005160201b60201c565b62000043336200011560201b60201c565b62000381565b600033905090565b60008060009054906101000a900473ffffffffffffffffffffffffffffffffffffffff169050816000806101000a81548173ffffffffffffffffffffffffffffffffffffffff021916908373ffffffffffffffffffffffffffffffffffffffff1602179055508173ffffffffffffffffffffffffffffffffffffffff168173ffffffffffffffffffffffffffffffffffffffff167f8be0079c531659141344cd1fd0a4f28419497f9722a3daafe3b4186f6b6457e060405160405180910390a35050565b62000125620001ac60201b60201c565b600073ffffffffffffffffffffffffffffffffffffffff168173ffffffffffffffffffffffffffffffffffffffff16141562000198576040517f08c379a00000000000000000000000000000000000000000000000000000000081526004016200018f90620002b4565b60405180910390fd5b620001a9816200005160201b60201c565b50565b620001bc6200004960201b60201c565b73ffffffffffffffffffffffffffffffffffffffff16620001e26200023d60201b60201c565b73ffffffffffffffffffffffffffffffffffffffff16146200023b576040517f08c379a00000000000000000000000000000000000000000000000000000000081526004016200023290620002d6565b60405180910390fd5b565b60008060009054906101000a900473ffffffffffffffffffffffffffffffffffffffff16905090565b600062000275602683620002f8565b9150620002828262000309565b604082019050919050565b60006200029c602083620002f8565b9150620002a98262000358565b602082019050919050565b60006020820190508181036000830152620002cf8162000266565b9050919050565b60006020820190508181036000830152620002f1816200028d565b9050919050565b600082825260208201905092915050565b7f4f776e61626c653a206e6577206f776e657220697320746865207a65726f206160008201527f6464726573730000000000000000000000000000000000000000000000000000602082015250565b7f4f776e61626c653a2063616c6c6572206973206e6f7420746865206f776e6572600082015250565b61235880620003916000396000f3fe6080604052600436106100a75760003560e01c806389549fdc1161006457806389549fdc146101875780638da5cb5b146101b0578063dfae3035146101db578063f1d996fb14610204578063f2fde38b1461022f578063f5c0a14314610258576100a7565b80633610724e146100ac57806369f66297146100c85780636f9fb98a146100f3578063715018a61461011e57806376b8905c1461013557806382db4f191461015e575b600080fd5b6100c660048036038101906100c1919061193c565b610281565b005b3480156100d457600080fd5b506100dd6105d6565b6040516100ea9190611ba8565b60405180910390f35b3480156100ff57600080fd5b50610108610600565b6040516101159190611dd8565b60405180910390f35b34801561012a57600080fd5b506101336106b2565b005b34801561014157600080fd5b5061015c60048036038101906101579190611819565b6106c6565b005b34801561016a57600080fd5b506101856004803603810190610180919061193c565b610861565b005b34801561019357600080fd5b506101ae60048036038101906101a9919061193c565b610bee565b005b3480156101bc57600080fd5b506101c5611277565b6040516101d29190611ba8565b60405180910390f35b3480156101e757600080fd5b5061020260048036038101906101fd9190611819565b6112a0565b005b34801561021057600080fd5b506102196112ec565b6040516102269190611ba8565b60405180910390f35b34801561023b57600080fd5b5061025660048036038101906102519190611819565b611316565b005b34801561026457600080fd5b5061027f600480360381019061027a91906118d5565b61139a565b005b600066470de4df82000090506000828261029b9190611ee3565b90506102a5611277565b73ffffffffffffffffffffffffffffffffffffffff163373ffffffffffffffffffffffffffffffffffffffff16141580156103ab5750600260009054906101000a900473ffffffffffffffffffffffffffffffffffffffff1673ffffffffffffffffffffffffffffffffffffffff16638da5cb5b6040518163ffffffff1660e01b815260040160206040518083038186803b15801561034357600080fd5b505afa158015610357573d6000803e3d6000fd5b505050506040513d601f19601f8201168201806040525081019061037b9190611842565b73ffffffffffffffffffffffffffffffffffffffff163373ffffffffffffffffffffffffffffffffffffffff1614155b6103ea576040517f08c379a00000000000000000000000000000000000000000000000000000000081526004016103e190611db8565b60405180910390fd5b80341461042c576040517f08c379a000000000000000000000000000000000000000000000000000000000815260040161042390611c98565b60405180910390fd5b610434611277565b73ffffffffffffffffffffffffffffffffffffffff166108fc349081150290604051600060405180830381858888f19350505050158015610479573d6000803e3d6000fd5b506000600260009054906101000a900473ffffffffffffffffffffffffffffffffffffffff1673ffffffffffffffffffffffffffffffffffffffff16638da5cb5b6040518163ffffffff1660e01b815260040160206040518083038186803b1580156104e457600080fd5b505afa1580156104f8573d6000803e3d6000fd5b505050506040513d601f19601f8201168201806040525081019061051c9190611842565b9050600260009054906101000a900473ffffffffffffffffffffffffffffffffffffffff1673ffffffffffffffffffffffffffffffffffffffff166323b872dd8233876040518463ffffffff1660e01b815260040161057d93929190611bc3565b602060405180830381600087803b15801561059757600080fd5b505af11580156105ab573d6000803e3d6000fd5b505050506040513d601f19601f820116820180604052508101906105cf91906118ac565b5050505050565b6000600160009054906101000a900473ffffffffffffffffffffffffffffffffffffffff16905090565b6000600260009054906101000a900473ffffffffffffffffffffffffffffffffffffffff1673ffffffffffffffffffffffffffffffffffffffff166370a08231306040518263ffffffff1660e01b815260040161065d9190611ba8565b60206040518083038186803b15801561067557600080fd5b505afa158015610689573d6000803e3d6000fd5b505050506040513d601f19601f820116820180604052508101906106ad9190611965565b905090565b6106ba61147a565b6106c460006114f8565b565b6106ce61147a565b80600260006101000a81548173ffffffffffffffffffffffffffffffffffffffff021916908373ffffffffffffffffffffffffffffffffffffffff160217905550600260009054906101000a900473ffffffffffffffffffffffffffffffffffffffff1673ffffffffffffffffffffffffffffffffffffffff16633950935130600260009054906101000a900473ffffffffffffffffffffffffffffffffffffffff1673ffffffffffffffffffffffffffffffffffffffff166318160ddd6040518163ffffffff1660e01b815260040160206040518083038186803b1580156107b657600080fd5b505afa1580156107ca573d6000803e3d6000fd5b505050506040513d601f19601f820116820180604052508101906107ee9190611965565b6040518363ffffffff1660e01b815260040161080b929190611bfa565b602060405180830381600087803b15801561082557600080fd5b505af1158015610839573d6000803e3d6000fd5b505050506040513d601f19601f8201168201806040525081019061085d91906118ac565b5050565b61086961147a565b600160009054906101000a900473ffffffffffffffffffffffffffffffffffffffff1673ffffffffffffffffffffffffffffffffffffffff16637792cb14826040518263ffffffff1660e01b81526004016108c49190611dd8565b60206040518083038186803b1580156108dc57600080fd5b505afa1580156108f0573d6000803e3d6000fd5b505050506040513d601f19601f820116820180604052508101906109149190611965565b4211610955576040517f08c379a000000000000000000000000000000000000000000000000000000000815260040161094c90611cf8565b60405180910390fd5b6000600160009054906101000a900473ffffffffffffffffffffffffffffffffffffffff1673ffffffffffffffffffffffffffffffffffffffff16635fa38280836040518263ffffffff1660e01b81526004016109b29190611dd8565b60006040518083038186803b1580156109ca57600080fd5b505afa1580156109de573d6000803e3d6000fd5b505050506040513d6000823e3d601f19601f82011682018060405250810190610a07919061186b565b5190506000600160009054906101000a900473ffffffffffffffffffffffffffffffffffffffff1673ffffffffffffffffffffffffffffffffffffffff16635fa38280846040518263ffffffff1660e01b8152600401610a679190611dd8565b60006040518083038186803b158015610a7f57600080fd5b505afa158015610a93573d6000803e3d6000fd5b505050506040513d6000823e3d601f19601f82011682018060405250810190610abc919061186b565b905060038211610b01576040517f08c379a0000000000000000000000000000000000000000000000000000000008152600401610af890611d98565b60405180910390fd5b60008183610b0e866115bc565b610b189190612002565b81518110610b4f577f4e487b7100000000000000000000000000000000000000000000000000000000600052603260045260246000fd5b60200260200101519050600160009054906101000a900473ffffffffffffffffffffffffffffffffffffffff1673ffffffffffffffffffffffffffffffffffffffff1663dd0111e985836040518363ffffffff1660e01b8152600401610bb6929190611df3565b600060405180830381600087803b158015610bd057600080fd5b505af1158015610be4573d6000803e3d6000fd5b5050505050505050565b600160009054906101000a900473ffffffffffffffffffffffffffffffffffffffff1673ffffffffffffffffffffffffffffffffffffffff16637792cb14826040518263ffffffff1660e01b8152600401610c499190611dd8565b60206040518083038186803b158015610c6157600080fd5b505afa158015610c75573d6000803e3d6000fd5b505050506040513d601f19601f82011682018060405250810190610c999190611965565b4210610cda576040517f08c379a0000000000000000000000000000000000000000000000000000000008152600401610cd190611d18565b60405180910390fd5b610ce2611277565b73ffffffffffffffffffffffffffffffffffffffff163373ffffffffffffffffffffffffffffffffffffffff1614158015610de85750600260009054906101000a900473ffffffffffffffffffffffffffffffffffffffff1673ffffffffffffffffffffffffffffffffffffffff16638da5cb5b6040518163ffffffff1660e01b815260040160206040518083038186803b158015610d8057600080fd5b505afa158015610d94573d6000803e3d6000fd5b505050506040513d601f19601f82011682018060405250810190610db89190611842565b73ffffffffffffffffffffffffffffffffffffffff163373ffffffffffffffffffffffffffffffffffffffff1614155b610e27576040517f08c379a0000000000000000000000000000000000000000000000000000000008152600401610e1e90611cd8565b60405180910390fd5b6000600160009054906101000a900473ffffffffffffffffffffffffffffffffffffffff1673ffffffffffffffffffffffffffffffffffffffff16637f529b93836040518263ffffffff1660e01b8152600401610e849190611dd8565b60206040518083038186803b158015610e9c57600080fd5b505afa158015610eb0573d6000803e3d6000fd5b505050506040513d601f19601f82011682018060405250810190610ed49190611965565b905080600260009054906101000a900473ffffffffffffffffffffffffffffffffffffffff1673ffffffffffffffffffffffffffffffffffffffff166370a08231336040518263ffffffff1660e01b8152600401610f329190611ba8565b60206040518083038186803b158015610f4a57600080fd5b505afa158015610f5e573d6000803e3d6000fd5b505050506040513d601f19601f82011682018060405250810190610f829190611965565b1015610fc3576040517f08c379a0000000000000000000000000000000000000000000000000000000008152600401610fba90611d58565b60405180910390fd5b6000600260009054906101000a900473ffffffffffffffffffffffffffffffffffffffff1673ffffffffffffffffffffffffffffffffffffffff16638da5cb5b6040518163ffffffff1660e01b815260040160206040518083038186803b15801561102d57600080fd5b505afa158015611041573d6000803e3d6000fd5b505050506040513d601f19601f820116820180604052508101906110659190611842565b9050600160009054906101000a900473ffffffffffffffffffffffffffffffffffffffff1673ffffffffffffffffffffffffffffffffffffffff166360365e0c84846040518363ffffffff1660e01b81526004016110c4929190611e1c565b600060405180830381600087803b1580156110de57600080fd5b505af11580156110f2573d6000803e3d6000fd5b50505050600160009054906101000a900473ffffffffffffffffffffffffffffffffffffffff1673ffffffffffffffffffffffffffffffffffffffff16632ab29df784336040518363ffffffff1660e01b8152600401611153929190611df3565b600060405180830381600087803b15801561116d57600080fd5b505af1158015611181573d6000803e3d6000fd5b50505050600260009054906101000a900473ffffffffffffffffffffffffffffffffffffffff1673ffffffffffffffffffffffffffffffffffffffff166323b872dd3383856040518463ffffffff1660e01b81526004016111e493929190611bc3565b602060405180830381600087803b1580156111fe57600080fd5b505af1158015611212573d6000803e3d6000fd5b505050506040513d601f19601f8201168201806040525081019061123691906118ac565b507f4ff4dda4a86440a97ad1af9a4ad143f0180938f803dbb34e09f327231c12add733848460405161126a93929190611c23565b60405180910390a1505050565b60008060009054906101000a900473ffffffffffffffffffffffffffffffffffffffff16905090565b6112a861147a565b80600160006101000a81548173ffffffffffffffffffffffffffffffffffffffff021916908373ffffffffffffffffffffffffffffffffffffffff16021790555050565b6000600260009054906101000a900473ffffffffffffffffffffffffffffffffffffffff16905090565b61131e61147a565b600073ffffffffffffffffffffffffffffffffffffffff168173ffffffffffffffffffffffffffffffffffffffff16141561138e576040517f08c379a000000000000000000000000000000000000000000000000000000000815260040161138590611cb8565b60405180910390fd5b611397816114f8565b50565b6113a261147a565b4281116113e4576040517f08c379a00000000000000000000000000000000000000000000000000000000081526004016113db90611d78565b60405180910390fd5b600160009054906101000a900473ffffffffffffffffffffffffffffffffffffffff1673ffffffffffffffffffffffffffffffffffffffff1663f5c0a1438484846040518463ffffffff1660e01b815260040161144393929190611c5a565b600060405180830381600087803b15801561145d57600080fd5b505af1158015611471573d6000803e3d6000fd5b50505050505050565b6114826116aa565b73ffffffffffffffffffffffffffffffffffffffff166114a0611277565b73ffffffffffffffffffffffffffffffffffffffff16146114f6576040517f08c379a00000000000000000000000000000000000000000000000000000000081526004016114ed90611d38565b60405180910390fd5b565b60008060009054906101000a900473ffffffffffffffffffffffffffffffffffffffff169050816000806101000a81548173ffffffffffffffffffffffffffffffffffffffff021916908373ffffffffffffffffffffffffffffffffffffffff1602179055508173ffffffffffffffffffffffffffffffffffffffff168173ffffffffffffffffffffffffffffffffffffffff167f8be0079c531659141344cd1fd0a4f28419497f9722a3daafe3b4186f6b6457e060405160405180910390a35050565b600080600160009054906101000a900473ffffffffffffffffffffffffffffffffffffffff1673ffffffffffffffffffffffffffffffffffffffff16635fa38280846040518263ffffffff1660e01b815260040161161a9190611dd8565b60006040518083038186803b15801561163257600080fd5b505afa158015611646573d6000803e3d6000fd5b505050506040513d6000823e3d601f19601f8201168201806040525081019061166f919061186b565b519050444342836040516020016116899493929190611b5a565b6040516020818303038152906040528051906020012060001c915050919050565b600033905090565b60006116c56116c084611e6a565b611e45565b905080838252602082019050828560208602820111156116e457600080fd5b60005b8581101561171457816116fa8882611771565b8452602084019350602083019250506001810190506116e7565b5050509392505050565b600061173161172c84611e96565b611e45565b90508281526020810184848401111561174957600080fd5b611754848285611f85565b509392505050565b60008135905061176b816122dd565b92915050565b600081519050611780816122dd565b92915050565b600082601f83011261179757600080fd5b81516117a78482602086016116b2565b91505092915050565b6000815190506117bf816122f4565b92915050565b600082601f8301126117d657600080fd5b81356117e684826020860161171e565b91505092915050565b6000813590506117fe8161230b565b92915050565b6000815190506118138161230b565b92915050565b60006020828403121561182b57600080fd5b60006118398482850161175c565b91505092915050565b60006020828403121561185457600080fd5b600061186284828501611771565b91505092915050565b60006020828403121561187d57600080fd5b600082015167ffffffffffffffff81111561189757600080fd5b6118a384828501611786565b91505092915050565b6000602082840312156118be57600080fd5b60006118cc848285016117b0565b91505092915050565b6000806000606084860312156118ea57600080fd5b600084013567ffffffffffffffff81111561190457600080fd5b611910868287016117c5565b9350506020611921868287016117ef565b9250506040611932868287016117ef565b9150509250925092565b60006020828403121561194e57600080fd5b600061195c848285016117ef565b91505092915050565b60006020828403121561197757600080fd5b600061198584828501611804565b91505092915050565b61199781611f3d565b82525050565b60006119a882611ec7565b6119b28185611ed2565b93506119c2818560208601611f94565b6119cb816120c0565b840191505092915050565b60006119e3601b83611ed2565b91506119ee826120d1565b602082019050919050565b6000611a06602683611ed2565b9150611a11826120fa565b604082019050919050565b6000611a29601983611ed2565b9150611a3482612149565b602082019050919050565b6000611a4c601a83611ed2565b9150611a5782612172565b602082019050919050565b6000611a6f601283611ed2565b9150611a7a8261219b565b602082019050919050565b6000611a92602083611ed2565b9150611a9d826121c4565b602082019050919050565b6000611ab5602283611ed2565b9150611ac0826121ed565b604082019050919050565b6000611ad8601e83611ed2565b9150611ae38261223c565b602082019050919050565b6000611afb602683611ed2565b9150611b0682612265565b604082019050919050565b6000611b1e601883611ed2565b9150611b29826122b4565b602082019050919050565b611b3d81611f7b565b82525050565b611b54611b4f82611f7b565b611ff8565b82525050565b6000611b668287611b43565b602082019150611b768286611b43565b602082019150611b868285611b43565b602082019150611b968284611b43565b60208201915081905095945050505050565b6000602082019050611bbd600083018461198e565b92915050565b6000606082019050611bd8600083018661198e565b611be5602083018561198e565b611bf26040830184611b34565b949350505050565b6000604082019050611c0f600083018561198e565b611c1c6020830184611b34565b9392505050565b6000606082019050611c38600083018661198e565b611c456020830185611b34565b611c526040830184611b34565b949350505050565b60006060820190508181036000830152611c74818661199d565b9050611c836020830185611b34565b611c906040830184611b34565b949350505050565b60006020820190508181036000830152611cb1816119d6565b9050919050565b60006020820190508181036000830152611cd1816119f9565b9050919050565b60006020820190508181036000830152611cf181611a1c565b9050919050565b60006020820190508181036000830152611d1181611a3f565b9050919050565b60006020820190508181036000830152611d3181611a62565b9050919050565b60006020820190508181036000830152611d5181611a85565b9050919050565b60006020820190508181036000830152611d7181611aa8565b9050919050565b60006020820190508181036000830152611d9181611acb565b9050919050565b60006020820190508181036000830152611db181611aee565b9050919050565b60006020820190508181036000830152611dd181611b11565b9050919050565b6000602082019050611ded6000830184611b34565b92915050565b6000604082019050611e086000830185611b34565b611e15602083018461198e565b9392505050565b6000604082019050611e316000830185611b34565b611e3e6020830184611b34565b9392505050565b6000611e4f611e60565b9050611e5b8282611fc7565b919050565b6000604051905090565b600067ffffffffffffffff821115611e8557611e84612091565b5b602082029050602081019050919050565b600067ffffffffffffffff821115611eb157611eb0612091565b5b611eba826120c0565b9050602081019050919050565b600081519050919050565b600082825260208201905092915050565b6000611eee82611f7b565b9150611ef983611f7b565b9250817fffffffffffffffffffffffffffffffffffffffffffffffffffffffffffffffff0483118215151615611f3257611f31612033565b5b828202905092915050565b6000611f4882611f5b565b9050919050565b60008115159050919050565b600073ffffffffffffffffffffffffffffffffffffffff82169050919050565b6000819050919050565b82818337600083830152505050565b60005b83811015611fb2578082015181840152602081019050611f97565b83811115611fc1576000848401525b50505050565b611fd0826120c0565b810181811067ffffffffffffffff82111715611fef57611fee612091565b5b80604052505050565b6000819050919050565b600061200d82611f7b565b915061201883611f7b565b92508261202857612027612062565b5b828206905092915050565b7f4e487b7100000000000000000000000000000000000000000000000000000000600052601160045260246000fd5b7f4e487b7100000000000000000000000000000000000000000000000000000000600052601260045260246000fd5b7f4e487b7100000000000000000000000000000000000000000000000000000000600052604160045260246000fd5b6000601f19601f8301169050919050565b7f506c656173652073657420746865207269676874207072696365210000000000600082015250565b7f4f776e61626c653a206e6577206f776e657220697320746865207a65726f206160008201527f6464726573730000000000000000000000000000000000000000000000000000602082015250565b7f41646d696e2043616e6e6f7420506c6163652041204269642100000000000000600082015250565b7f43616e2774207069636b207468652077696e6e65722079657421000000000000600082015250565b7f4c6f747465727920697320636c6f736564210000000000000000000000000000600082015250565b7f4f776e61626c653a2063616c6c6572206973206e6f7420746865206f776e6572600082015250565b7f4e6f204e65636573736172792046756e647320546f205061727465636970617460008201527f6521000000000000000000000000000000000000000000000000000000000000602082015250565b7f43616e6e6f74207365742061206461746520696e207468652050617374210000600082015250565b7f4e6f7420656e6f756768206164647265737320746f207069636b20746865207760008201527f696e6e6572210000000000000000000000000000000000000000000000000000602082015250565b7f41646d696e2043616e6e6f742042757920546f6b656e73210000000000000000600082015250565b6122e681611f3d565b81146122f157600080fd5b50565b6122fd81611f4f565b811461230857600080fd5b50565b61231481611f7b565b811461231f57600080fd5b5056fea26469706673582212209b14b44eb1ec0efeb19282afdb023a1ca483cf757637b8b955dc491ad20ac7f864736f6c63430008040033",
  "linkReferences": {},
  "deployedLinkReferences": {}
}