{
  "_format": "hh-sol-artifact-1",
  "contractName": "LotteryInfo",
  "sourceName": "contracts/LotteryInfo.sol",
  "abi": [
    {
      "inputs": [],
      "stateMutability": "nonpayable",
      "type": "constructor"
    },
    {
      "anonymous": false,
      "inputs": [
        {
          "indexed": false,
          "internalType": "uint256",
          "name": "tokenId",
          "type": "uint256"
        },
        {
          "indexed": false,
          "internalType": "string",
          "name": "name",
          "type": "string"
        },
        {
          "indexed": false,
          "internalType": "uint256",
          "name": "amountBettedOn",
          "type": "uint256"
        },
        {
          "indexed": false,
          "internalType": "uint256",
          "name": "defaultBid",
          "type": "uint256"
        }
      ],
      "name": "ItemCreated",
      "type": "event"
    },
    {
      "anonymous": false,
      "inputs": [
        {
          "indexed": true,
          "internalType": "address",
          "name": "previousOwner",
          "type": "address"
        },
        {
          "indexed": true,
          "internalType": "address",
          "name": "newOwner",
          "type": "address"
        }
      ],
      "name": "OwnershipTransferred",
      "type": "event"
    },
    {
      "inputs": [
        {
          "internalType": "uint256",
          "name": "_tokenIds",
          "type": "uint256"
        }
      ],
      "name": "getBidAmount",
      "outputs": [
        {
          "internalType": "uint256",
          "name": "",
          "type": "uint256"
        }
      ],
      "stateMutability": "view",
      "type": "function"
    },
    {
      "inputs": [
        {
          "internalType": "uint256",
          "name": "_tokenIds",
          "type": "uint256"
        }
      ],
      "name": "getBidderAddress",
      "outputs": [
        {
          "internalType": "address[]",
          "name": "",
          "type": "address[]"
        }
      ],
      "stateMutability": "view",
      "type": "function"
    },
    {
      "inputs": [
        {
          "internalType": "uint256",
          "name": "_tokenIds",
          "type": "uint256"
        }
      ],
      "name": "getDefaultItemBid",
      "outputs": [
        {
          "internalType": "uint256",
          "name": "",
          "type": "uint256"
        }
      ],
      "stateMutability": "view",
      "type": "function"
    },
    {
      "inputs": [
        {
          "internalType": "uint256",
          "name": "_tokenIds",
          "type": "uint256"
        }
      ],
      "name": "getEndingTimeLottery",
      "outputs": [
        {
          "internalType": "uint256",
          "name": "",
          "type": "uint256"
        }
      ],
      "stateMutability": "view",
      "type": "function"
    },
    {
      "inputs": [
        {
          "internalType": "uint256",
          "name": "_tokenIds",
          "type": "uint256"
        }
      ],
      "name": "getItemName",
      "outputs": [
        {
          "internalType": "string",
          "name": "",
          "type": "string"
        }
      ],
      "stateMutability": "view",
      "type": "function"
    },
    {
      "inputs": [
        {
          "internalType": "uint256",
          "name": "itemIndex",
          "type": "uint256"
        }
      ],
      "name": "getWinner",
      "outputs": [
        {
          "internalType": "address",
          "name": "",
          "type": "address"
        }
      ],
      "stateMutability": "view",
      "type": "function"
    },
    {
      "inputs": [
        {
          "internalType": "address",
          "name": "_lotteryContract",
          "type": "address"
        }
      ],
      "name": "initLotteryContract",
      "outputs": [],
      "stateMutability": "nonpayable",
      "type": "function"
    },
    {
      "inputs": [],
      "name": "owner",
      "outputs": [
        {
          "internalType": "address",
          "name": "",
          "type": "address"
        }
      ],
      "stateMutability": "view",
      "type": "function"
    },
    {
      "inputs": [],
      "name": "renounceOwnership",
      "outputs": [],
      "stateMutability": "nonpayable",
      "type": "function"
    },
    {
      "inputs": [
        {
          "internalType": "string",
          "name": "_name",
          "type": "string"
        },
        {
          "internalType": "uint256",
          "name": "_defaultBid",
          "type": "uint256"
        },
        {
          "internalType": "uint256",
          "name": "_endingTimeLottery",
          "type": "uint256"
        }
      ],
      "name": "setItemToWin",
      "outputs": [],
      "stateMutability": "nonpayable",
      "type": "function"
    },
    {
      "inputs": [
        {
          "internalType": "uint256",
          "name": "itemIndex",
          "type": "uint256"
        },
        {
          "internalType": "address",
          "name": "winner",
          "type": "address"
        }
      ],
      "name": "setWinnerLottery",
      "outputs": [],
      "stateMutability": "nonpayable",
      "type": "function"
    },
    {
      "inputs": [
        {
          "internalType": "address",
          "name": "newOwner",
          "type": "address"
        }
      ],
      "name": "transferOwnership",
      "outputs": [],
      "stateMutability": "nonpayable",
      "type": "function"
    },
    {
      "inputs": [
        {
          "internalType": "uint256",
          "name": "_tokenIds",
          "type": "uint256"
        },
        {
          "internalType": "address",
          "name": "_bidder",
          "type": "address"
        }
      ],
      "name": "updateAddress",
      "outputs": [],
      "stateMutability": "nonpayable",
      "type": "function"
    },
    {
      "inputs": [
        {
          "internalType": "uint256",
          "name": "_tokenIds",
          "type": "uint256"
        },
        {
          "internalType": "uint256",
          "name": "_amount",
          "type": "uint256"
        }
      ],
      "name": "updateBid",
      "outputs": [],
      "stateMutability": "nonpayable",
      "type": "function"
    }
  ],
  "bytecode": "0x608060405234801561001057600080fd5b5061002d61002261003260201b60201c565b61003a60201b60201c565b6100fe565b600033905090565b60008060009054906101000a900473ffffffffffffffffffffffffffffffffffffffff169050816000806101000a81548173ffffffffffffffffffffffffffffffffffffffff021916908373ffffffffffffffffffffffffffffffffffffffff1602179055508173ffffffffffffffffffffffffffffffffffffffff168173ffffffffffffffffffffffffffffffffffffffff167f8be0079c531659141344cd1fd0a4f28419497f9722a3daafe3b4186f6b6457e060405160405180910390a35050565b6112738061010d6000396000f3fe608060405234801561001057600080fd5b50600436106100ea5760003560e01c80637f529b931161008c578063dd0111e911610066578063dd0111e91461025b578063f2fde38b14610277578063f5c0a14314610293578063fc48eded146102af576100ea565b80637f529b93146101dd5780638da5cb5b1461020d578063d9561a911461022b576100ea565b806360365e0c116100c857806360365e0c1461016b5780636b7e2d8614610187578063715018a6146101a35780637792cb14146101ad576100ea565b80632ab29df7146100ef5780634129b2c91461010b5780635fa382801461013b575b600080fd5b61010960048036038101906101049190610c56565b6102df565b005b61012560048036038101906101209190610c2d565b610368565b6040516101329190610dff565b60405180910390f35b61015560048036038101906101509190610c2d565b6103a5565b6040516101629190610e1a565b60405180910390f35b61018560048036038101906101809190610c92565b610449565b005b6101a1600480360381019061019c9190610b9d565b610488565b005b6101ab6104d4565b005b6101c760048036038101906101c29190610c2d565b6104e8565b6040516101d49190610e9e565b60405180910390f35b6101f760048036038101906101f29190610c2d565b610508565b6040516102049190610e9e565b60405180910390f35b610215610528565b6040516102229190610dff565b60405180910390f35b61024560048036038101906102409190610c2d565b610551565b6040516102529190610e3c565b60405180910390f35b61027560048036038101906102709190610c56565b6105f9565b005b610291600480360381019061028c9190610b9d565b61065d565b005b6102ad60048036038101906102a89190610bc6565b6106e1565b005b6102c960048036038101906102c49190610c2d565b610850565b6040516102d69190610e9e565b60405180910390f35b600260009054906101000a90505060036000838152602001908152602001600020600301819080600181540180825580915050600190039060005260206000200160009091909190916101000a81548173ffffffffffffffffffffffffffffffffffffffff021916908373ffffffffffffffffffffffffffffffffffffffff1602179055505050565b60006004600083815260200190815260200160002060009054906101000a900473ffffffffffffffffffffffffffffffffffffffff169050919050565b60606003600083815260200190815260200160002060030180548060200260200160405190810160405280929190818152602001828054801561043d57602002820191906000526020600020905b8160009054906101000a900473ffffffffffffffffffffffffffffffffffffffff1673ffffffffffffffffffffffffffffffffffffffff16815260200190600101908083116103f3575b50505050509050919050565b600260009054906101000a9050508060036000848152602001908152602001600020600101600082825461047d9190610fb0565b925050819055505050565b610490610870565b80600260006101000a81548173ffffffffffffffffffffffffffffffffffffffff021916908373ffffffffffffffffffffffffffffffffffffffff16021790555050565b6104dc610870565b6104e660006108ee565b565b600060036000838152602001908152602001600020600401549050919050565b600060036000838152602001908152602001600020600201549050919050565b60008060009054906101000a900473ffffffffffffffffffffffffffffffffffffffff16905090565b606060036000838152602001908152602001600020600001805461057490611096565b80601f01602080910402602001604051908101604052809291908181526020018280546105a090611096565b80156105ed5780601f106105c2576101008083540402835291602001916105ed565b820191906000526020600020905b8154815290600101906020018083116105d057829003601f168201915b50505050509050919050565b600260009054906101000a905050806004600084815260200190815260200160002060006101000a81548173ffffffffffffffffffffffffffffffffffffffff021916908373ffffffffffffffffffffffffffffffffffffffff1602179055505050565b610665610870565b600073ffffffffffffffffffffffffffffffffffffffff168173ffffffffffffffffffffffffffffffffffffffff1614156106d5576040517f08c379a00000000000000000000000000000000000000000000000000000000081526004016106cc90610e5e565b60405180910390fd5b6106de816108ee565b50565b600260009054906101000a9050506106f960016109b2565b600061070560016109c8565b90506040518060a0016040528085815260200160008152602001848152602001600067ffffffffffffffff811115610766577f4e487b7100000000000000000000000000000000000000000000000000000000600052604160045260246000fd5b6040519080825280602002602001820160405280156107945781602001602082028036833780820191505090505b508152602001838152506003600083815260200190815260200160002060008201518160000190805190602001906107cd9291906109de565b50602082015181600101556040820151816002015560608201518160030190805190602001906107fe929190610a64565b50608082015181600401559050507ffed0f31785f93738e65b9d4e2da5f8f07faf314599d960928cf02d2fcadd364181856000866040516108429493929190610eb9565b60405180910390a150505050565b600060036000838152602001908152602001600020600101549050919050565b6108786109d6565b73ffffffffffffffffffffffffffffffffffffffff16610896610528565b73ffffffffffffffffffffffffffffffffffffffff16146108ec576040517f08c379a00000000000000000000000000000000000000000000000000000000081526004016108e390610e7e565b60405180910390fd5b565b60008060009054906101000a900473ffffffffffffffffffffffffffffffffffffffff169050816000806101000a81548173ffffffffffffffffffffffffffffffffffffffff021916908373ffffffffffffffffffffffffffffffffffffffff1602179055508173ffffffffffffffffffffffffffffffffffffffff168173ffffffffffffffffffffffffffffffffffffffff167f8be0079c531659141344cd1fd0a4f28419497f9722a3daafe3b4186f6b6457e060405160405180910390a35050565b6001816000016000828254019250508190555050565b600081600001549050919050565b600033905090565b8280546109ea90611096565b90600052602060002090601f016020900481019282610a0c5760008555610a53565b82601f10610a2557805160ff1916838001178555610a53565b82800160010185558215610a53579182015b82811115610a52578251825591602001919060010190610a37565b5b509050610a609190610aee565b5090565b828054828255906000526020600020908101928215610add579160200282015b82811115610adc5782518260006101000a81548173ffffffffffffffffffffffffffffffffffffffff021916908373ffffffffffffffffffffffffffffffffffffffff16021790555091602001919060010190610a84565b5b509050610aea9190610aee565b5090565b5b80821115610b07576000816000905550600101610aef565b5090565b6000610b1e610b1984610f2a565b610f05565b905082815260208101848484011115610b3657600080fd5b610b41848285611054565b509392505050565b600081359050610b588161120f565b92915050565b600082601f830112610b6f57600080fd5b8135610b7f848260208601610b0b565b91505092915050565b600081359050610b9781611226565b92915050565b600060208284031215610baf57600080fd5b6000610bbd84828501610b49565b91505092915050565b600080600060608486031215610bdb57600080fd5b600084013567ffffffffffffffff811115610bf557600080fd5b610c0186828701610b5e565b9350506020610c1286828701610b88565b9250506040610c2386828701610b88565b9150509250925092565b600060208284031215610c3f57600080fd5b6000610c4d84828501610b88565b91505092915050565b60008060408385031215610c6957600080fd5b6000610c7785828601610b88565b9250506020610c8885828601610b49565b9150509250929050565b60008060408385031215610ca557600080fd5b6000610cb385828601610b88565b9250506020610cc485828601610b88565b9150509250929050565b6000610cda8383610ce6565b60208301905092915050565b610cef81611006565b82525050565b610cfe81611006565b82525050565b6000610d0f82610f6b565b610d198185610f8e565b9350610d2483610f5b565b8060005b83811015610d55578151610d3c8882610cce565b9750610d4783610f81565b925050600181019050610d28565b5085935050505092915050565b610d6b81611042565b82525050565b6000610d7c82610f76565b610d868185610f9f565b9350610d96818560208601611063565b610d9f81611186565b840191505092915050565b6000610db7602683610f9f565b9150610dc282611197565b604082019050919050565b6000610dda602083610f9f565b9150610de5826111e6565b602082019050919050565b610df981611038565b82525050565b6000602082019050610e146000830184610cf5565b92915050565b60006020820190508181036000830152610e348184610d04565b905092915050565b60006020820190508181036000830152610e568184610d71565b905092915050565b60006020820190508181036000830152610e7781610daa565b9050919050565b60006020820190508181036000830152610e9781610dcd565b9050919050565b6000602082019050610eb36000830184610df0565b92915050565b6000608082019050610ece6000830187610df0565b8181036020830152610ee08186610d71565b9050610eef6040830185610d62565b610efc6060830184610df0565b95945050505050565b6000610f0f610f20565b9050610f1b82826110c8565b919050565b6000604051905090565b600067ffffffffffffffff821115610f4557610f44611157565b5b610f4e82611186565b9050602081019050919050565b6000819050602082019050919050565b600081519050919050565b600081519050919050565b6000602082019050919050565b600082825260208201905092915050565b600082825260208201905092915050565b6000610fbb82611038565b9150610fc683611038565b9250827fffffffffffffffffffffffffffffffffffffffffffffffffffffffffffffffff03821115610ffb57610ffa6110f9565b5b828201905092915050565b600061101182611018565b9050919050565b600073ffffffffffffffffffffffffffffffffffffffff82169050919050565b6000819050919050565b600061104d82611038565b9050919050565b82818337600083830152505050565b60005b83811015611081578082015181840152602081019050611066565b83811115611090576000848401525b50505050565b600060028204905060018216806110ae57607f821691505b602082108114156110c2576110c1611128565b5b50919050565b6110d182611186565b810181811067ffffffffffffffff821117156110f0576110ef611157565b5b80604052505050565b7f4e487b7100000000000000000000000000000000000000000000000000000000600052601160045260246000fd5b7f4e487b7100000000000000000000000000000000000000000000000000000000600052602260045260246000fd5b7f4e487b7100000000000000000000000000000000000000000000000000000000600052604160045260246000fd5b6000601f19601f8301169050919050565b7f4f776e61626c653a206e6577206f776e657220697320746865207a65726f206160008201527f6464726573730000000000000000000000000000000000000000000000000000602082015250565b7f4f776e61626c653a2063616c6c6572206973206e6f7420746865206f776e6572600082015250565b61121881611006565b811461122357600080fd5b50565b61122f81611038565b811461123a57600080fd5b5056fea26469706673582212207709499b3d69d887ab425c42de65826d13f55a3a26c1625c37cef73661b3545064736f6c63430008040033",
  "linkReferences": {},
  "deployedLinkReferences": {}
}